:020000040800F2
:10000000E8240020750200087D0200087F02000835
:100010008102000883020008850200080000000039
:10002000000000000000000000000000870200083F
:1000300089020008000000008B020008310300085C
:100040008F0200088F0200088F0200088F0200084C
:100050008F0200088F0200088F0200088F0200083C
:100060008F0200088F0200088F0200088F0200082C
:100070008F0200088F0200088F0200088F0200081C
:100080008F0200088F0200088F0200088F0200080C
:100090008F0200088F0200088F0200088F020008FC
:1000A0008F0200088F0200088F0200088F020008EC
:1000B0008F0200088F0200088F0200088F020008DC
:1000C0008F0200088F0200088F0200088F020008CC
:1000D0008F0200088F0200088F0200088F020008BC
:1000E0008F0200088F0200088F0200088F020008AC
:1000F0008F0200088F0200088F0200088F0200089C
:100100000000000000000000000000008F02000856
:100110008F0200088F0200088F0200088F0200087B
:100120008F0200088F0200088F0200088F0200086B
:100130008F0200088F02000800000000000000008D
:100140008F0200088F0200088F02000800000000E4
:10015000000000000000000000000000000000009F
:1001600000000000000000008F0200088F0200085D
:100170008F020008000000000000000000000000E6
:10018000000000008F02000800F002F800F03CF8C8
:100190000AA090E8000C82448344AAF10107DA45E2
:1001A00001D100F031F8AFF2090EBAE80F0013F0F8
:1001B000010F18BFFB1A43F0010318478C08000019
:1001C000AC080000103A24BF78C878C1FAD85207AA
:1001D00024BF30C830C144BF04680C6070470000C1
:1001E0000023002400250026103A28BF78C1FBD840
:1001F000520728BF30C148BF0B6070471FB500F0E1
:100200001DFC1FBD10B510BD00F05DF81146FFF7D5
:10021000F5FF00F071FA00F07BF803B4FFF7F2FF8E
:1002200003BC00F07FF800001149EFF303832DE9D0
:10023000F85FC1F800D0D0F800D0BDE8F81F83F314
:10024000038800BD0A49EFF303832DE9F85FC0F886
:1002500000D0D1F800D0BDE8F81F83F3038800BDBB
:1002600041F8040DEFF3038301E9F81F7047000024
:10027000100000200948804709480047FEE7FEE7D4
:10028000FEE7FEE7FEE7FEE7FEE7FEE7FEE7FEE746
:1002900004480549054A064B704700003D03000825
:1002A00089010008E8000020E8240020E80400207C
:1002B000E80400207047704770470000004870470E
:1002C0008400002070477546FFF7F8FFAE46050032
:1002D0006946534620F00700854618B020B5FFF761
:1002E000D7FFBDE820404FF000064FF000074FF069
:1002F00000084FF0000B21F00701AC46ACE8C00944
:10030000ACE8C009ACE8C009ACE8C0098D4670474C
:1003100010B50446AFF300802046BDE81040FFF75B
:100320007CBF000001491820ABBEFEE7260002009A
:1003300001200149087070470B0000200348006845
:1003400040F47000014908607047000088ED00E04B
:1003500010B500F077F90421034800F001FA0421F8
:10036000024800F0FDF910BDA9060008D1060008FA
:1003700011201E4908601E48006840F480301C4966
:10038000086000BF1A48006800F40030B0F5003F74
:10039000F8D100201649C8620846406840F4102091
:1003A00048600846006840F08070086000BF104850
:1003B000006800F00070B0F1007FF8D10C48406890
:1003C00040F480600A4948600846406820F0030015
:1003D00048600846406840F0020048600846C06A2D
:1003E00042F2103108430249C862704700200240BF
:1003F000001002402DE9F04F134603F0030503F00F
:10040000040603F0180703F0600C03F08008C3F340
:100410000729022D09D102684FEA410A032404FA90
:100420000AF422430260BDE8F08F02684FEA410AF5
:10043000032404FA0AF4A2430260C2684FEA410AA4
:10044000032404FA0AF4A243C260082F08D1C26848
:100450004FEA410A012404FA0AF42243C26009E087
:10046000102F07D1C2684FEA410A022404FA0AF4A5
:100470002243C2602EB9426801248C40A2434260EC
:1004800006E0042E04D1426801248C4022434260DD
:1004900082684FEA410A032404FA0AF4A243826004
:1004A000BCF1000F06D0BCF1200F0CD0BCF1400F06
:1004B0001BD111E082684FEA410A002404FA0AF4D1
:1004C000224382601AE082684FEA410A012404FA5A
:1004D0000AF42243826011E082684FEA410A032451
:1004E00004FA0AF42243826008E082684FEA410A73
:1004F000032404FA0AF42243826000BF00BFB8F16B
:10050000800F4DD102684FEA410A022404FA0AF42E
:10051000224302604FEAE17A01EB5A7A4FEAEA0B92
:1005200000F1200A5AF82BA00C464FEAE17B01EBC0
:100530005B7B4FEAEB0BA1EBCB0B4FEA8B0E4FF043
:100540000F0B0BFA0EFB2AEA0B0A0A464FEAE17B75
:1005500001EB5B7B4FEAEB0B00F1200E4EF82BA07A
:100560004FEAE17A01EB5A7A4FEAEA0BF2465AF87F
:100570002BA04FEAE17B01EB5B7B4FEAEB0BA1EB9E
:10058000CB0B4FEA8B0B09FA0BFB4AEA0B0A4FEA3B
:10059000E17B01EB5B7B4FEAEB0B4EF82BA042E7D4
:1005A00005B940E7012D07D102684FEA410A01244D
:1005B00004FA0AF42243026000BF34E7B0F1904F1E
:1005C00005D11A49496941F40031184A5161184965
:1005D000884205D11549496941F48021134A516186
:1005E0001449884205D11149496941F400210F4A53
:1005F00051611149884205D10C49496941F4801182
:100600000A4A51610D49884205D10849496941F4B6
:100610000011064A51610A49884205D103494969D6
:1006200041F48001014A516170470000001002400E
:100630000004004800080048000C00480010004872
:100640000014004810B54FF09040FFF7B7FF144872
:10065000FFF7B4FF1348FFF7B1FF4122082111480B
:10066000FFF7C8FE412209210E48FFF7C3FE4222D0
:1006700005214FF09040FFF7BDFE422206214FF0CA
:100680009040FFF7B7FE422207214FF09040FFF75E
:10069000B1FE422200210248FFF7ACFE10BD00006F
:1006A00000040048000800480848006800F4807012
:1006B00028B14FF080700549091D086004E04FF42F
:1006C00080700249091D0860704700001408004846
:1006D0000848006800F4007028B14FF00070054928
:1006E000091D086004E04FF400700249091D08600C
:1006F000704700001408004800F086F9FFF728FE54
:1007000003E000F023F900F081F8FAE77047704742
:100710001149097801B97047002017E00F4901EB32
:100720000011C96881B10D4901EB0011C968491E6A
:100730000A4A02EB0012D16009B9012100E0002150
:10074000064A02EB00121160411CC8B20249097846
:100750008842E3DB00BFDEE70E00002074000020CB
:1007600070B505460C46234800780C2802D10120BC
:1007700000F048F9072C1FD2DFE804F01E041D0B1F
:100780001117050018E01C480078401C1A49087031
:1007900012E01A480078401C184908700CE018480C
:1007A0000078401C1649087006E016480078401C86
:1007B0001449087000E000BF00BF13480D490978D4
:1007C00000EBC1004560012C06D100200E49094A0A
:1007D000127801F8320004E00B480649097800F865
:1007E00031400448007803490978491C014A1170D6
:1007F00070BD00000D000020070000200800002050
:10080000090000200A0000201400002010B5434811
:10081000007800B910BD4248007840490978884204
:1008200002D100203E4908703E483D49097810F841
:10083000310028B93A480078401C39490870E9E786
:1008400038483749097810F8310007285ED2DFE8C8
:1008500000F05D0455223344110000203149304A34
:10086000127801F832002E4A127801EBC201486872
:1008700080474BE02C48007800280BDD2949284AA6
:10088000127801EBC2014868804727480078401E73
:10089000254908703AE02548007800280BDD2149F9
:1008A0001F4A127801EBC201486880471F48007850
:1008B000401E1E49087029E01D48007800280BDD05
:1008C0001849174A127801EBC20148688047184856
:1008D0000078401E1649087018E016480078002875
:1008E0000BDD10490E4A127801EBC20148688047BF
:1008F00010480078401E0F49087007E00949084A6F
:10090000127801EBC2014868804700BF00BF04486D
:100910000078401C0249087000BF7BE70D000020F2
:100920000C00002014000020030000200400002020
:10093000050000200600002040F69F704FF0E021E7
:1009400088614861032008617047000000B52148B4
:10095000007800B900BD00201E490870FFF7D8FEDE
:100960001D48007818B91D4800781B4908701C48BC
:100970000078401EC0B21A49087040BB0A200870B7
:100980001848007818B918480078164908701748B0
:100990000078401EC0B215490870C0B90A2008701E
:1009A0001348007818B913480078114908701248A4
:1009B0000078401EC0B21049087040B90A20087083
:1009C0000E48007818B90E4800780C49087000BF2E
:1009D000C0E700000B0000200300002007000020FB
:1009E0000200002004000020080000200100002078
:1009F0000500002009000020000000200600002063
:100A00000A00002000BFFEE700B5FFF7B1FCFFF7CA
:100A10007DFEFFF791FF002208E00020064901F863
:100A2000320001EBC2014860501CC2B20C2AF4DB58
:100A3000FFF76DFE00BD0000140000204FF0407075
:100A4000E1EE100A70470000680A0008000000206C
:100A500014000000C40100087C0A000814000020F3
:100A6000D4240000E00100080A0A0A000000000087
:0C0A70000000000000000000000000007A
:040000050800018965
:00000001FF
